:100000000C942A000C9447000C9447000C94470071
:100010000C9447000C9447000C9447000C94470044
:100020000C9447000C9447000C9447000C94470034
:100030000C9447000C9447000C9447000C94470024
:100040000C9447000C9447000C9447000C94470014
:100050000C94470011241FBECFE5D8E0DEBFCDBF12
:1000600011E0A0E6B0E0EEE4F6E102C005900D92EA
:10007000A83BB107D9F711E0A8EBB1E001C01D9290
:10008000AF3BB107E1F70E944A010C94250B0C9499
:1000900000008091940090919500885B914089F4D4
:1000A00082E090E060E070E00E94010280E690E073
:1000B0000E94F2018091B8019091B9010E949202D0
:1000C00008958091BC018B3261F08C3220F48A3229
:1000D00009F072C034C08D32D9F08F3209F06CC093
:1000E0004BC082E090E060E070E00E94010280E698
:1000F00090E00E94F2018091BA019091BB012091A1
:10010000B8013091B901820F931F0E9492020895A5
:1001100082E090E060E070E00E94010280E690E002
:100120000E94F2018091B8019091B9012091BA0129
:100130003091BB01821B930B0E949202089582E0D2
:1001400090E060E070E00E94010280E690E00E9492
:10015000F2012091BA013091BB018091B8019091D8
:10016000B901AC01249FC001259F900D349F900DD3
:1001700011240E949202089582E090E060E070E015
:100180000E94010280E690E00E94F2016091BA01B3
:100190007091BB016115710529F489E690E00E9418
:1001A000F20108958091B8019091B9010E9426084A
:1001B000CB010E949202089582E090E060E070E03E
:1001C0000E94010282E790E00E94F20108951092DD
:1001D000B9011092B8011092BB011092BA011092AD
:1001E000BC0188EB91E090939500809394000E946D
:1001F000C10108951F93182F0E94C9011093BC01DB
:100200008AEB91E090939500809394001F9108955C
:100210000F931F93082F0E94C901E0919400F09161
:100220009500808191819C01220F331F880F991FB7
:10023000880F991F880F991F280F391F20533040AE
:10024000112707FD1095200F311F318320831F9147
:100250000F9108950E94CC02982F8F3319F40E94B9
:10026000E70008958D3319F40E94490008958B32F8
:1002700031F08D3221F08A3211F08F3221F4892F42
:100280000E94FA00089580538A3018F4892F0E9442
:10029000080108950E9494010E94C70288E790E037
:1002A0000E94F20120E23EE448EC50E0CA010197CE
:1002B000F1F721503040D1F70E94C1010E942A017C
:1002C000FDCFE8E3F0E08081877F808380E29EE4D9
:1002D0000197F1F780818860808308950F931F93C1
:1002E0000AE310E0F80180811082E8E3F0E0808109
:1002F0008460808380818D7F80830E946101F8010A
:1003000080818FEF80831F910F9108951F93182F85
:100310000E946E01E8E3F0E08081897F80831BBB4F
:100320000E9461011F91089524EF31E048EC50E0F4
:10033000CA010197F1F721503040D1F7E7E3F0E02F
:1003400080818E608083EAE3F0E080818FEF80839C
:10035000E8E3F0E08081897F80838081886080830A
:1003600080E395E70197F1F788E30E94860186E034
:100370000E9486018FE00E94860180E80E9486012B
:10038000089581E00E9486011092BE011092BD0185
:1003900008951F93182F0E946E01E8E3F0E080811A
:1003A0008B7F80838081826080831BBB0E94610180
:1003B0008091BD019091BE0101969093BE01809302
:1003C000BD018031910521F480EC0E94860108C0B6
:1003D000819731F41092BE011092BD010E94C101BB
:1003E0001F910895CF93DF93EC018881882331F02A
:1003F00021960E94C90188818823D1F7DF91CF918E
:1004000008950F931F93CF93DF93EC018B018130FD
:10041000910529F4862F80580E94860107C08230FA
:10042000910521F4862F80540E948601CE01019708
:1004300082959295907F9827807F9827800F911FB3
:100440009093BE018093BD01DF91CF911F910F91D9
:100450000895AF92BF92CF92DF92EF92FF920F93E7
:100460001F93DF93CF93CDB7DEB7E2970FB6F89423
:10047000DEBF0FBECDBF7B018C010E9436065B0143
:100480006C01B501882777FD8095982F0E94D805CB
:100490009B01AC01C801B7010E9480042DB73EB793
:1004A000285030400FB6F8943EBF0FBE2DBF0DB799
:1004B0001EB70F5F1F4F7E010894E11CF11CF8016D
:1004C000F182E08226E930E033832283B582A48280
:1004D00020E030E04AE754E40E94DE040E94360641
:1004E000F801778366830E9484082DB73EB7285FA2
:1004F0003F4F0FB6F8943EBF0FBE2DBFC7010E94FD
:10050000F201E2960FB6F894DEBF0FBECDBFCF91D9
:10051000DF911F910F91FF90EF90DF90CF90BF90F0
:10052000AF9008950F931F93DF93CF93CDB7DEB7AE
:10053000E2970FB6F894DEBF0FBECDBF00D000D05B
:1005400000D0EDB7FEB731968E010F5F1F4F1183BC
:1005500000832CE930E033832283958384830E94D7
:1005600084088DB79EB706960FB6F8949EBF0FBE4F
:100570008DBFC8010E94F201E2960FB6F894DEBF6B
:100580000FBECDBFCF91DF911F910F9108958FE0E6
:1005900084BB8FEF85BB0895EF92FF920F931F935B
:1005A000CF93DF9360E070E0E5E3F0E0EE24FF241A
:1005B000E39404E010E0C3E3D0E0A0EABFE0808170
:1005C0009701062E02C0220F331F0A94E2F7922FE2
:1005D000909598239083A801888190E0042E02C012
:1005E000959587950A94E2F780FD22C081E090E01E
:1005F000FC01042E02C0EE0FFF1F0A94E2F7A3E3F2
:10060000B0E08C9190E08E239F23892BD1F3E5E31A
:10061000F0E08081822B8083CB01880F991F880FA7
:10062000991FFA01E80FF91FE556FF4F808115C0A9
:10063000CD010197F1F74F5F5F4F4830510561F6EB
:100640008081822B8083CD010197F1F76F5F7F4F0F
:100650006430710509F0B3CF80E0DF91CF911F9135
:100660000F91FF90EF900895A0E0B0E0EAE3F3E08F
:100670000C944D08DC012B01FA019C91923008F496
:1006800039C1EB018881823008F433C1943069F4B8
:10069000843009F02FC111969C9111978981981788
:1006A00009F428C1AFEAB0E025C1843009F421C1C2
:1006B0008230A9F4923009F01DC19A01AD0188E0A1
:1006C000EA010990AE01E90109929E018150C1F74A
:1006D000E201898111969C918923818308C192301E
:1006E00009F407C112962D903C901397EB018A8173
:1006F0009B811496AD90BD90CD90DC901797EC80C7
:10070000FD800E811F819101281B390BB90137FF34
:1007100004C066277727621B730B603271050CF0EB
:1007200061C0121613066CF537014801062E04C08D
:1007300096948794779467940A94D2F721E030E0F6
:1007400040E050E004C0220F331F441F551F6A953C
:10075000D2F721503040404050402E213F214023CD
:100760005123211531054105510521F021E030E0EB
:1007700040E050E079018A01E628F7280829192984
:100780003CC0232BD1F1260E371E35014601062E23
:1007900004C096948794779467940A94D2F721E0E2
:1007A00030E040E050E004C0220F331F441F551FCB
:1007B0006A95D2F721503040404050402A213B21D9
:1007C0004C215D21211531054105510521F021E024
:1007D00030E040E050E059016A01A628B728C82857
:1007E000D9280BC0821593052CF01C01AA24BB2428
:1007F000650103C0EE24FF24870111969C91D2016C
:1008000011968C91981709F445C0992339F0A801E5
:1008100097012A193B094C095D0906C0A6019501FB
:100820002E193F09400B510B57FD08C0118233822E
:10083000228224833583468357831DC081E08183D0
:100840003382228288279927DC01821B930BA40B19
:10085000B50B84839583A683B7830DC0220F331F06
:10086000441F551F24833583468357838281938198
:100870000197938382832481358146815781DA01F0
:10088000C9010197A109B1098F5F9F4FAF4FBF43C6
:1008900028F30BC0918333822282EA0CFB1C0C1DCF
:1008A0001D1DE482F5820683178383E08083248103
:1008B00035814681578157FF1AC0C901AA2797FD84
:1008C000A095BA2F81709070A070B0705695479522
:1008D00037952795822B932BA42BB52B8483958357
:1008E000A683B78382819381019693838283DF01FC
:1008F00001C0D201CD01CDB7DEB7E2E10C946908A9
:10090000A0E2B0E0E6E8F4E00C94590869837A8349
:100910008B839C832D833E834F835887E9E0EE2EA3
:10092000F12CEC0EFD1ECE010196B7010E94AE0720
:100930008E010F5E1F4FCE010596B8010E94AE07D3
:100940008A8991E089278A8BC701B801AE01475E89
:100950005F4F0E9434030E94D906A096E6E00C94F3
:100960007508A0E2B0E0E7EBF4E00C945908698365
:100970007A838B839C832D833E834F835887F9E052
:10098000EF2EF12CEC0EFD1ECE010196B7010E9458
:10099000AE078E010F5E1F4FCE010596B8010E9473
:1009A000AE07C701B801AE01475E5F4F0E94340336
:1009B0000E94D906A096E6E00C947508A0E2B0E08B
:1009C000E4EEF4E00C944D0869837A838B839C8376
:1009D0002D833E834F835887CE010196BE01675F0A
:1009E0007F4F0E94AE07CE010596BE016F5E7F4F1E
:1009F0000E94AE079985923088F089898230C8F0CC
:100A0000943019F4823051F404C0843029F49230C7
:100A100081F48FEA90E0C6C0923049F420E09A85D4
:100A20008A89981321E02A87CE010996BBC08230BB
:100A300049F420E09A858A89981321E02A8BCE0117
:100A40004196B0C02D843E844F8458886D887E883E
:100A50008F88988CEE24FF248701AA24BB2465018B
:100A600040E050E060E070E0E0E0F0E0C101817063
:100A70009070892BE9F0E60CF71C081D191D9A01EE
:100A8000AB012A0D3B1D4C1D5D1D80E090E0A0E0F8
:100A9000B0E0E614F7040805190520F481E090E0C1
:100AA000A0E0B0E0BA01A901480F591F6A1F7B1FDF
:100AB000AA0CBB1CCC1CDD1C97FE08C081E090E09A
:100AC000A0E0B0E0A82AB92ACA2ADB2A3196E0328F
:100AD000F10549F0660C771C881C991C56944794C4
:100AE00037942794C3CFFA85EA892B893C898B8573
:100AF0009C85280F391F2E5F3F4F17C0CA01817098
:100B00009070892B61F016950795F794E79480E033
:100B100090E0A0E0B0E8E82AF92A0A2B1B2B769592
:100B20006795579547952F5F3F4F77FDE7CF0CC0EF
:100B3000440F551F661F771F17FD4160EE0CFF1C09
:100B4000001F111F21503040403090E0590790E0C5
:100B5000690790E4790760F32B8F3C8FDB01CA01B2
:100B60008F779070A070B07080349105A105B105A9
:100B700061F447FD0AC0E114F1040105110529F0F3
:100B8000405C5F4F6F4F7F4F40781A8EFE1711F019
:100B900081E08A8F4D8F5E8F6F8F78A383E0898F7E
:100BA000CE0149960E94D906A096E2E10C9469080C
:100BB000A8E0B0E0EEEDF5E00C9456089B01AC0126
:100BC00083E08983DA01C9018827B7FD83959927D6
:100BD000AA27BB27B82E211531054105510519F467
:100BE00082E089833AC08823A9F0203080E038076A
:100BF00080E0480780E8580729F460E070E080E072
:100C00009FEC30C0EE24FF248701E21AF30A040BA4
:100C1000150B02C079018A018EE1C82ED12CDC822D
:100C2000CB82ED82FE820F831887C801B7010E9434
:100C30008A0601971816190684F4082E04C0EE0CD3
:100C4000FF1C001F111F0A94D2F7ED82FE820F8352
:100C50001887C81AD90ADC82CB82BA82CE010196E3
:100C60000E94D9062896E9E00C947208ACE0B0E046
:100C7000ECE3F6E00C945D0869837A838B839C83B4
:100C8000CE010196BE016B5F7F4F0E94AE078D8142
:100C9000823061F1823050F1843021F48E818823DA
:100CA00051F12EC02F81388537FD20C06E812F3144
:100CB00031051CF06623F9F023C08EE190E0821B21
:100CC000930B29853A854B855C8504C056954795DD
:100CD000379527958A95D2F76623B1F050954095C0
:100CE000309521953F4F4F4F5F4F0EC020E030E0D1
:100CF00040E050E009C02FEF3FEF4FEF5FE704C047
:100D000020E030E040E050E8B901CA012C96E2E072
:100D10000C947908EF92FF920F931F937B018C0143
:100D200080E0E81680E0F80681E0080780E0180718
:100D300088F48FEFE816F1040105110531F028F071
:100D400088E090E0A0E0B0E017C080E090E0A0E094
:100D5000B0E012C080E0E81680E0F80680E0080706
:100D600081E0180728F088E190E0A0E0B0E004C03E
:100D700080E190E0A0E0B0E020E230E040E050E030
:100D8000281B390B4A0B5B0B04C016950795F7948B
:100D9000E7948A95D2F7F701E954FF4F8081281B29
:100DA000310941095109C9011F910F91FF90EF903D
:100DB0000895DF92EF92FF920F931F93FC01E4805E
:100DC000F58006811781D1808081823048F480E0EF
:100DD00090E0A0E1B0E0E82AF92A0A2B1B2BA5C07D
:100DE000843009F49FC0823021F4EE24FF2487016F
:100DF00005C0E114F1040105110519F4E0E0F0E08B
:100E000096C0628173819FEF623879070CF05BC0F6
:100E100022E83FEF261B370B2A3131052CF020E06A
:100E200030E040E050E02AC0B801A701022E04C023
:100E300076956795579547950A94D2F781E090E0AB
:100E4000A0E0B0E004C0880F991FAA1FBB1F2A951D
:100E5000D2F70197A109B1098E219F21A023B123C7
:100E60000097A105B10521F081E090E0A0E0B0E09D
:100E70009A01AB01282B392B4A2B5B2BDA01C901D4
:100E80008F779070A070B07080349105A105B10586
:100E900039F427FF09C0205C3F4F4F4F5F4F04C01C
:100EA000215C3F4F4F4F5F4FE0E0F0E02030A0E08B
:100EB0003A07A0E04A07A0E45A0710F0E1E0F0E0AA
:100EC00079018A0127C06038710564F5FB01E1589A
:100ED000FF4FD801C7018F779070A070B070803439
:100EE0009105A105B10539F4E7FE0DC080E490E05D
:100EF000A0E0B0E004C08FE390E0A0E0B0E0E80E36
:100F0000F91E0A1F1B1F17FF05C016950795F794BA
:100F1000E794319687E016950795F794E7948A95BC
:100F2000D1F705C0EE24FF248701EFEFF0E06E2F2C
:100F3000679566276795902F9F77D794DD24D79480
:100F40008E2F8695492F462B582F5D29B701CA0150
:100F50001F910F91FF90EF90DF900895FC01DB014E
:100F6000408151812281622F6F7770E0221F2227FA
:100F7000221F9381892F880F822B282F30E0991F01
:100F80009927991F11969C93119721153105A9F561
:100F9000411551056105710511F482E037C082E801
:100FA0009FEF13969C938E9312979A01AB0167E083
:100FB000220F331F441F551F6A95D1F783E08C938E
:100FC0000DC0220F331F441F551F12968D919C9107
:100FD0001397019713969C938E931297203080E07D
:100FE000380780E0480780E4580758F314962D939B
:100FF0003D934D935C93179708952F3F310579F4F6
:10100000411551056105710519F484E08C9308952B
:1010100064FF03C081E08C9312C01C9210C02F5754
:10102000304013963C932E93129783E08C9387E085
:10103000440F551F661F771F8A95D1F77064149669
:101040004D935D936D937C931797089597FB092EAD
:1010500007260AD077FD04D00CD006D000201AF461
:10106000709561957F4F0895F6F7909581959F4F04
:101070000895AA1BBB1B51E107C0AA1FBB1FA617DF
:10108000B70710F0A61BB70B881F991F5A95A9F731
:1010900080959095BC01CD0108952F923F924F927B
:1010A0005F926F927F928F929F92AF92BF92CF92F8
:1010B000DF92EF92FF920F931F93CF93DF93CDB701
:1010C000DEB7CA1BDB0B0FB6F894DEBF0FBECDBF79
:1010D00009942A88398848885F846E847D848C844A
:1010E0009B84AA84B984C884DF80EE80FD800C8153
:1010F0001B81AA81B981CE0FD11D0FB6F894DEBF36
:101100000FBECDBFED010895AEE0B0E0EAE8F8E033
:101110000C945B080D891E8986E08C831A830983F1
:101120008FEF9FE79E838D839E01275E3F4FCE0109
:1011300001966F89788DA9010E94A8082F813885B2
:10114000020F131FF80110822E96E4E00C9477082A
:10115000ABE0B0E0EEEAF8E00C944D083C012B0166
:101160005A01FC0117821682838181FD03C06FEF53
:101170007FEFC6C19AE0892E1E010894211C311C04
:10118000F3012381F20123FD859123FF81912F013A
:10119000882309F4B2C1853239F423FD859123FFF8
:1011A00081912F01853229F490E0B3010E949B0ABE
:1011B000E7CF982FFF24EE249924FFE1FF15D0F00C
:1011C0009B3269F09C3228F4903259F0933291F4BA
:1011D0000EC09D3249F0903369F441E024C052E0E2
:1011E000F52A84E0F82A28C098E0F92A25C0E0E131
:1011F000FE2A22C0F7FC29C0892F80538A3070F460
:10120000F6FE05C0989C902C1124980E15C0E89C01
:10121000E02C1124E80EF0E2FF2A0EC09E3229F4E1
:10122000F6FC6BC140E4F42A07C09C3619F450E880
:10123000F52A02C0983649F4F20123FD959123FF67
:1012400091912F01992309F0B8CF892F85548330CC
:1012500018F08052833038F444E050E0A40EB51EFC
:101260005FE359830FC0933631F0933779F09335AC
:1012700009F056C020C0F5018081898342E050E02A
:10128000A40EB51E610101E010E012C0F501C0809E
:10129000D180F6FC03C06FEF7FEF02C0692D70E0D4
:1012A00042E050E0A40EB51EC6010E94900A8C01D7
:1012B0005FE7F52214C0F501C080D180F6FC03C0C1
:1012C0006FEF7FEF02C0692D70E042E050E0A40EA6
:1012D000B51EC6010E94850A8C0150E8F52AF3FE6E
:1012E00007C01AC080E290E0B3010E949B0AEA9412
:1012F0008E2D90E008171907A8F30EC0F601F7FC31
:101300008591F7FE81916F0190E0B3010E949B0AE5
:10131000E110EA94015010400115110579F7EAC077
:10132000943611F0993669F5F7FE08C0F501208171
:1013300031814281538184E090E00AC0F5018081CF
:1013400091819C01442737FD4095542F82E090E025
:10135000A80EB91E9FE6F92257FF09C05095409587
:10136000309521953F4F4F4F5F4FE0E8FE2ACA016D
:10137000B901A1012AE030E00E94C70AD82ED21894
:1013800040C0953729F41F2D1F7E2AE030E01DC094
:101390001F2D197F9F3661F0903720F4983509F0A2
:1013A000ACC00FC0903739F0983709F0A6C004C020
:1013B00028E030E00AC0106114FD146020E130E044
:1013C00004C014FD166020E132E017FF08C0F501EB
:1013D000608171818281938144E050E008C0F50111
:1013E00080819181BC0180E090E042E050E0A40E59
:1013F000B51EA1010E94C70AD82ED2188FE7F82E79
:10140000F122F6FE0BC05EEFF522D91438F4F4FE9B
:1014100007C0F2FC05C08FEEF82202C01D2D01C0EE
:10142000192DF4FE0DC0FE01ED0DF11D80818033FC
:1014300019F499EEF92208C01F5FF2FE05C003C03F
:101440008F2D867809F01F5F0F2DF3FC14C0F0FE7E
:101450000FC01E1510F09D2C0BC09D2C9E0C911AD8
:101460001E2D06C080E290E0B3010E949B0A1F5F20
:101470001E15C0F304C01E1510F4E11A01C0EE24BD
:1014800004FF0FC080E390E0B3010E949B0A02FFBB
:101490001DC001FD03C088E790E00EC088E590E024
:1014A0000BC0802F867891F001FF02C08BE201C053
:1014B00080E2F7FC8DE290E0B3010E949B0A06C037
:1014C00080E390E0B3010E949B0A9A94D914C0F380
:1014D000DA94F101ED0DF11D808190E0B3010E94DD
:1014E0009B0ADD20A9F706C080E290E0B3010E94CC
:1014F0009B0AEA94EE20C1F743CEF301668177811F
:10150000CB012B96E2E10C946908FC010590615037
:1015100070400110D8F7809590958E0F9F1F089509
:10152000FC016150704001900110D8F780959095B2
:101530008E0F9F1F08950F931F93CF93DF938C01FE
:10154000EB018B8181FF1BC082FF0DC02E813F818B
:101550008C819D812817390764F4E881F981019312
:10156000F983E88306C0E885F985802F0995892BE2
:1015700031F48E819F8101969F838E8302C00FEF8D
:101580001FEFC801DF91CF911F910F910895FA01CC
:10159000AA27283051F1203181F1E8946F936E7FB2
:1015A0006E5F7F4F8F4F9F4FAF4FB1E03ED0B4E0A3
:1015B0003CD0670F781F891F9A1FA11D680F791FE4
:1015C0008A1F911DA11D6A0F711D811D911DA11DF5
:1015D00020D009F468943F912AE0269F1124301905
:1015E000305D3193DEF6CF010895462F4770405DA0
:1015F0004193B3E00FD0C9F7F6CF462F4F70405D4F
:101600004A3318F0495D31FD4052419302D0A9F7A9
:10161000EACFB4E0A6959795879577956795BA95A3
:10162000C9F700976105710508959B01AC010A2E69
:1016300006945795479537952795BA95C9F7620F40
:0E164000731F841F951FA01D0895F894FFCFFF
:10164E00416E737765723D2000696E66696E6974CE
:10165E0065004552524F520068656C6C6F20746F76
:10166E00206D792063616C63756C61746F7220619B
:10167E0070702100B80125642E25640025640037A2
:10168E0038392F3435362A3132332D3F303D2B0049
:10169E000000000000000000010202030303030427
:1016AE0004040404040404050505050505050505E3
:1016BE0005050505050505060606060606060606C3
:1016CE0006060606060606060606060606060606AC
:1016DE000606060606060607070707070707070793
:1016EE00070707070707070707070707070707077C
:1016FE00070707070707070707070707070707076C
:10170E00070707070707070707070707070707075B
:10171E000707070707070708080808080808080842
:10172E00080808080808080808080808080808082B
:10173E00080808080808080808080808080808081B
:10174E00080808080808080808080808080808080B
:10175E0008080808080808080808080808080808FB
:10176E0008080808080808080808080808080808EB
:10177E0008080808080808080808080808080808DB
:10178E0008080808080808080808080808080808CB
:08179E0008080808080808000B
:00000001FF
