:100000000C942A000C945B000C9481000C94A700C3
:100010000C9434000C9434000C9434000C94340090
:100020000C9434000C9434000C9434000C94340080
:100030000C9434000C9434000C9434000C94340070
:100040000C9434000C9434000C9434000C94340060
:100050000C94340011241FBECFE5D8E0DEBFCDBF25
:100060000E94CD000C94E2000C94000080EE90E021
:10007000A0E0B0E081BB92BBA3BBB4BB85B796B791
:10008000A7B7B8B78D6085BF96BFA7BFB8BF84B705
:1000900095B7A6B7B7B78F7B84BF95BFA6BFB7BFCD
:1000A0008BB79CB7ADB7BEB7806E8BBF9CBFADBFE3
:1000B000BEBF789408951F920F920FB60F9211242D
:1000C0002F938F939F93AF93BF9382B393B3A4B3B4
:1000D000B5B3806282BB93BBA4BBB5BB2FE38DE0FD
:1000E00093E0215080409040E1F700C00000BF91B4
:1000F000AF919F918F912F910F900FBE0F901F90F6
:1001000018951F920F920FB60F9211242F938F9371
:100110009F93AF93BF9382B393B3A4B3B5B38064FB
:1001200082BB93BBA4BBB5BB2FE38DE093E0215012
:1001300080409040E1F700C00000BF91AF919F91D7
:100140008F912F910F900FBE0F901F9018951F92B7
:100150000F920FB60F9211242F938F939F93AF930B
:10016000BF9382B393B3A4B3B5B3806882BB93BB90
:10017000A4BBB5BB2FE38DE093E0215080409040BD
:10018000E1F700C00000BF91AF919F918F912F9137
:100190000F900FBE0F901F9018950E94360082B3EB
:1001A00093B3A4B3B5B3882782BB93BBA4BBB5BB41
:1001B0002FE38DE093E0215080409040E1F700C0B4
:0801C0000000EDCFF894FFCF21
:00000001FF
